{
  "contractName": "VolunteerContract",
  "abi": [
    {
      "inputs": [],
      "stateMutability": "nonpayable",
      "type": "constructor"
    },
    {
      "inputs": [],
      "name": "numberofFunders",
      "outputs": [
        {
          "internalType": "uint256",
          "name": "",
          "type": "uint256"
        }
      ],
      "stateMutability": "view",
      "type": "function",
      "constant": true
    },
    {
      "inputs": [],
      "name": "owner",
      "outputs": [
        {
          "internalType": "address",
          "name": "",
          "type": "address"
        }
      ],
      "stateMutability": "view",
      "type": "function",
      "constant": true
    },
    {
      "stateMutability": "payable",
      "type": "receive",
      "payable": true
    },
    {
      "inputs": [],
      "name": "donate",
      "outputs": [],
      "stateMutability": "payable",
      "type": "function",
      "payable": true
    },
    {
      "inputs": [],
      "name": "getContractBalance",
      "outputs": [
        {
          "internalType": "uint256",
          "name": "",
          "type": "uint256"
        }
      ],
      "stateMutability": "view",
      "type": "function",
      "constant": true
    },
    {
      "inputs": [
        {
          "internalType": "uint256",
          "name": "amount",
          "type": "uint256"
        }
      ],
      "name": "withdraw",
      "outputs": [],
      "stateMutability": "nonpayable",
      "type": "function"
    }
  ],
  "bytecode": "0x608060405234801561001057600080fd5b50336000806101000a81548173ffffffffffffffffffffffffffffffffffffffff021916908373ffffffffffffffffffffffffffffffffffffffff16021790555061046a806100606000396000f3fe60806040526004361061004e5760003560e01c80632e1a7d4d1461005a5780636f9fb98a146100955780638da5cb5b146100c0578063b078b8f014610101578063ed88c68e1461012c57610055565b3661005557005b600080fd5b34801561006657600080fd5b506100936004803603602081101561007d57600080fd5b8101908080359060200190929190505050610136565b005b3480156100a157600080fd5b506100aa610284565b6040518082815260200191505060405180910390f35b3480156100cc57600080fd5b506100d561028c565b604051808273ffffffffffffffffffffffffffffffffffffffff16815260200191505060405180910390f35b34801561010d57600080fd5b506101166102b0565b6040518082815260200191505060405180910390f35b6101346102b6565b005b60008054906101000a900473ffffffffffffffffffffffffffffffffffffffff1673ffffffffffffffffffffffffffffffffffffffff163373ffffffffffffffffffffffffffffffffffffffff16146101da576040517f08c379a00000000000000000000000000000000000000000000000000000000081526004018080602001828103825260328152602001806103d16032913960400191505060405180910390fd5b66470de4df82000081111561023a576040517f08c379a00000000000000000000000000000000000000000000000000000000081526004018080602001828103825260328152602001806104036032913960400191505060405180910390fd5b3373ffffffffffffffffffffffffffffffffffffffff166108fc829081150290604051600060405180830381858888f19350505050158015610280573d6000803e3d6000fd5b5050565b600047905090565b60008054906101000a900473ffffffffffffffffffffffffffffffffffffffff1681565b60015481565b6000339050600360008273ffffffffffffffffffffffffffffffffffffffff1673ffffffffffffffffffffffffffffffffffffffff16815260200190815260200160002060009054906101000a900460ff166103cd57600060016000815480929190600101919050559050816002600083815260200190815260200160002060006101000a81548173ffffffffffffffffffffffffffffffffffffffff021916908373ffffffffffffffffffffffffffffffffffffffff1602179055506001600360008473ffffffffffffffffffffffffffffffffffffffff1673ffffffffffffffffffffffffffffffffffffffff16815260200190815260200160002060006101000a81548160ff021916908315150217905550505b5056fe54686520436f6e7472616374204f776e6572204f6e6c792043616e20557365205769746864726177202046756e6374696f6e54686520776974686472617720616d6f756e742053686f756c64204265206c657373205468616e20302e3220457468657220a26469706673582212204c4eb6c36b7422f6eaba037dcbb19cc9faa0e102d7ca5ccd235b231d22ea5fbc64736f6c63430007010033",
  "immutableReferences": {},
  "source": "// SPDX-License-Identifier: MIT\npragma solidity >=0.7.0 <0.9.0;\nimport \"./interfacePayments.sol\";\n\ncontract VolunteerContract {\n\n    address public owner;\n    \n    constructor(){\n        owner= msg.sender;\n    }\n    \n    modifier onlyOwner{\n        require(msg.sender == owner,\"The Contract Owner Only Can Use Withdraw  Function\");\n        _;\n    }\n    uint public numberofFunders;\n    \n    mapping (uint=>address) private funders;\n    mapping(address=>bool) private sucessFunders;\n    receive() external payable{}\n    \n    \n    function donate() external payable {\n        address funder = msg.sender;\n        \n        if(!sucessFunders[funder]){\n            uint index = numberofFunders++;\n            funders[index]= funder;\n            sucessFunders[funder]= true;\n        }\n    }\n    \n    function getContractBalance()public view returns(uint){\n        return address(this).balance;\n    }\n    \n        function withdraw(uint amount) external onlyOwner {\n            \n            require(amount <=  20000000000000000,\"The withdraw amount Should Be less Than 0.2 Ether \");\n            payable(msg.sender).transfer(amount);\n        }\n\n}",
  "sourcePath": "/Users/mrbebo/Main Hard/ArDapps Course Code/Simple_volunteer_ardapps/my-app/contracts/VolunteerContract.sol",
  "compiler": {
    "name": "solc",
    "version": "0.7.1+commit.f4a555be.Emscripten.clang"
  },
  "schemaVersion": "3.3.4",
  "updatedAt": "2021-10-30T15:31:34.191Z",
  "networkType": "ethereum",
  "devdoc": {
    "kind": "dev",
    "methods": {},
    "version": 1
  },
  "userdoc": {
    "kind": "user",
    "methods": {},
    "version": 1
  }
}